:020000040000FA
:100000000A128A11EE2F00308A000408840A82073F
:1000100000344F3470346534723461346E34643477
:100020006F342E342E342E342034203420342034B7
:100030002034003443346F346E34663469346734AA
:100040007534723461346E3464346F342034203447
:1000500020342034003420342034203420344234FE
:100060006F34613420345434613472346434653410
:1000700021342034203400346534733463346F34D5
:100080006C34683461342034613420346F3470341B
:10009000633461346F343A34003431343A344F3499
:1000A0007034653472346134633461346F342034B5
:0C00B00032343A34433466346734003490
:100B0400831603178901F0308316031386008312BA
:100B1400031386010800313432343334413434341D
:100B240035343634423437343834393443342A345F
:100B3400303423344434F5007508F40006300310CF
:100B4400F40DFF3E031DA12D730874077F39803E09
:100B54000A128A11BE260A128A1108007E088A0027
:100B64007F0882000A128A11B0250A128A118000B5
:100B7400840A04087D0603190034FF0A0319FE0AD7
:100B8400B42DD22D0130F0020030031CF103F10228
:100B9400C730F200CD2DF20BCC2DD02DD12DD22D7E
:100BA40070087104031DD72DD82DC42DD92D08002C
:100BB4008316031308118811081288120813881366
:100BC40083120313881528300A128A11BE260A12CA
:100BD4008A110C300A128A11BE260A128A110130B7
:100BE4000A128A11BE260A128A1102300A128A11C6
:100BF400BE260A128A110800F20083120313081594
:100C04007208F00004300310F00CFF3E031D052EA3
:100C14007008F100F10E080871060F39710688009A
:100C240088110D30F000F00B152E83120313881574
:100C3400081572080F39F000F00E080870060F3915
:100C44007006880088110D30F000F00B272E8312F7
:100C5400031388150800FA007608F8007808F900EC
:100C64007608F8007808F3007A080A128A119D259C
:100C74000A128A11522E770884000A128A1103205C
:100C84000A128A110A128A11FE250A128A110130E7
:100C9400F8007808F7070130F8007808F907522EB1
:100CA400770884000A128A1103200A128A11003A72
:100CB400031D5D2E5E2E3D2E5F2E0800F401F6010D
:100CC40004307602031C672E682E6A2EBB2EBB2EC0
:100CD4000130F000760A702E0310F00DFF3E031D64
:100CE4006E2E7008831203138600F501043075021A
:100CF400031C7D2E7E2E802EB02EB02E1030F000E0
:100D0400750A862E0310F00DFF3E031D842E700815
:100D1400060503198E2E8F2EA52E7608F0000230BC
:100D24000310F00DFF3E031D922E20307007F100DA
:100D340075087107F2007208840083130008F30039
:100D44007308F400A52E0130F0007008F507043094
:100D54007502031CAE2EAF2E802EB02E0130F00093
:100D64007008F60704307602031CB92EBA2E6A2ED8
:100D7400BB2E7408BD2E0800F20083120313081161
:100D84007208F00004300310F00CFF3E031DC52E62
:100D94007008F100F10E080871060F397106880019
:100DA400881172030319D72ED82EDF2E0230720653
:100DB400031DDD2EDE2EE92EDF2E0330F1009730E9
:100DC400F000F00BE32EF10BE32EE82EEE2E0D30A7
:100DD400F000F00BEB2EEE2E831203138815F03087
:100DE4007205F00020307006031DF92EFA2E142F20
:100DF40008117208F00004300310F00CFF3E031DCC
:100E0400FE2E7008F100F10E080871060F39710604
:100E1400880088110D30F000F00B0E2F831203139D
:100E24008815142F081172080F39F000F00E080805
:100E340070060F3970068800881172030319232F76
:100E4400242F2B2F02307206031D292F2A2F352F12
:100E54002B2F0330F1009730F000F00B2F2FF10B04
:100E64002F2F342F3A2F0D30F000F00B372F3A2F5D
:100E740083120313881508000A128A11DA250A124C
:100E84008A110A128A1182250A128A110A128A11F7
:100E940060260A128A11FB007B0883120313B10037
:100EA400D02FD02FB001B00AD02FF6012330FB0091
:100EB4007B08F70000300A128A112D260A128A11C3
:100EC400B830F0000B30F1000A128A11C3250A125F
:100ED4008A110A30FB007B0883120313B000D02F61
:100EE400F6013430FB007B08F70000300A128A1147
:100EF4002D260A128A11F6014530FB007B08F70003
:100F040001300A128A112D260A128A1131308312F5
:100F140003133106031D8F2F902F952F1430FB00E0
:100F24007B08B000952F32303106031D9A2F9B2F7A
:100F3400D02F6430FB007B08B000D02FD02FF601F7
:100F44000130FB007B08F70000300A128A112D26BD
:100F54000A128A112A30831203133106031DB32F98
:100F6400B42FD02FB001B00AD02FD02FF6011230F9
:100F7400FB007B08F70000300A128A112D260A12A2
:100F84008A112A30831203133106031DCA2FCB2F73
:100F9400D02FB001B00AD02FD02FD02F3008FB00B3
:100FA400FC017C08003A0319D82FD02F7B08003AA3
:100FB4000319542F013A0319572F0B3A0319722FAF
:100FC4001E3A0319A12F703A0319B82FD02FD02F2E
:100FD400D02F0A128A11002883133030FD00053007
:100FE400FE008D30FF00203084000A128A11B425DF
:0C0FF4000A128A1183010A128A113E2F92
:04400E00D4E0FFFFFC
:00000001FF
